S01800006275696C642F6D6963617A2F6D61696E2E73726563E5
S11300000C9449000C940F070C9419070C942307C3
S11300100C942D070C9437070C9441070C94BD08DD
S11300200C944B070C9468000C9468000C94070D16
S11300300C946E110C94D9060C94EF060C947B0767
S11300400C94C8060C9408110C9468000C94680075
S11300500C9468000C9468000C9468000C9468007C
S11300600C94E4060C9468000C9468000C946800EA
S11300700C9468000C9468000C9468000C9468005C
S11300800C9468000C9468000C94680000081C1818
S1130090141011241FBECFEFD0E1DEBFCDBF11E09D
S11300A0A0E0B1E0EAE4F5E400E00BBF02C0079091
S11300B00D92A633B107D9F716E1A6E3B1E001C06A
S11300C01D92A43CB107E1F70E949F1E0C94A42248
S11300D00C9400008FB7F894992708958FBF089562
S11300E0282F9FB7F894E82FFF27EB54FE4E80810A
S11300F08F3F81F4E091C216E21771F40BC0209394
S1130100FA1504C0FF27EB54FE4E20832093C21639
S113011020E007C025E005C08091FA158F3F91F7D4
S1130120EECF892F99278FBF822F99270895FC013D
S113013082819927582F442781819927482B592B4D
S1130140CA01892F9927869586958370907082308D
S1130150910559F08330910559F0892B19F420E069
S113016030E008C02CE93FEF05C022E030E002C0D7
S113017028E030E0CA0184E0989F812D992711245A
S11301808230910559F08330910559F0892B19F487
S113019080E090E008C08CE99FEF05C082E090E029
S11301A002C088E090E0280F391F2A5F3F4FCF013B
S11301B0820F931F0895282F9FB7F894662349F060
S11301C0E82FFF27E258FD4E8081882311F021E0BB
S11301D006C0E22FFF27E258FD4E608320E0892FFE
S11301E099278FBF822F99270895E82F8FB7F89406
S11301F0282F332790E0FF27E258FD4E8081861791
S113020009F491E02FBF892F99270895882311F0CD
S11302106E9A08956E980895882311F06F9A089540
S11302206F98089580E00E940601BA9ABB98B99A23
S1130230B89A6C9A80E00E940C016B986A9881E0ED
S11302400E940601709A8DB18C7F8DB908950F9329
S11302501F93CF93DF93182F8FB7F894C82FDD2700
S11302600C2F61E080E00E94DB00882321F0CFBFE7
S113027085E090E024C080912E018823A1F4809130
S11302803E01823081F409C082E080933E011092E5
S11302902E010E941201B89AC09810932B0180E09D
S11302A00FBF99270CC080913E01882369F38FB753
S11302B0F894992710927E128FBF81E0F1CFDF91DD
S11302C0CF911F910F9108951F93182F81E00E94E1
S11302D006011FB9779BFECF8FB199271F9108950F
S11302E08F929F92AF92BF92CF92DF92EF92FF9242
S11302F00F931F93CF93DF938FB7F8949927C090F0
S1130300BD16D090BE168090771290907812C0914E
S1130310F511D091F61120917B0130917C01EAE036
S1130320AE2EB12CAC0EBD1E2A153B0508F45901A6
S11303308FBF7401EC0EFD1E86010C0F1D1F14C02F
S1130340C114D10419F0F801808101C080E00E9439
S113035064018114910411F0F701808321960894BB
S1130360E11CF11C0F5F1F4FC5010197C817D90786
S113037038F381E00E940C019FB7F894C114D104B2
S113038031F0CC0EDD1EF60180818FB901C01FB89B
S1130390D093F611C093F511892F99278FBF80E070
S11303A090E0DF91CF911F910F91FF90EF90DF903C
S11303B0CF90BF90AF909F908F9008952FB7F894EF
S11303C0332750937C0140937B019093BE16809316
S11303D0BD1670937812609377121092F6111092F2
S11303E0F5112FBF452B29F08FB10E947001992779
S11303F008958AE00E94700080E090E008958FB72D
S1130400F8949927109280128FBF0895CF93DF93A9
S1130410DC01EC01ECADEE3119F480E090E00DC0AC
S1130420FF27EE0FFF1FEA0FFB1F71836083FD019F
S113043084AD8F5F84AF81E090E0DF91CF91089528
S1130440CF93DF93CDB7DEB7A0970FB6F894DEBF96
S11304500FBECDBFFC019E012F5F3F4FAE014B5D30
S11304605F4F8CE1DA010D90AD01D9010D929D0130
S11304708150C1F7E050F04F8081E050F041482FA7
S1130480552725968EAD9FAD259798A38F8F2396DC
S11304908EAD9FAD23979E8F8D8F95E0440F551F92
S11304A09A95E1F74E0F5F1F9E012F5F3F4F80E249
S11304B0D9010D909D01DA010D92AD018150C1F772
S11304C0E050F04F80818F5F8083A0960FB6F89440
S11304D0DEBF0FBECDBFDF91CF9108957FB7F894F3
S11304E062B720917E0130917F014091800150914B
S11304F0810106B601FE0FC081B792B7280F311DE6
S1130500411D511D2F5F3F4F4F4F5F4F290F311D2D
S1130510411D511D04C0260F311D411D511D872F42
S113052099278FBFCA01B90108952F923F924F9224
S11305305F926F927F928F929F92AF92BF92CF926F
S1130540DF92EF92FF920F931F93CF93DF93CDB778
S1130550DEB729970FB6F894DEBF0FBECDBF6FB7D5
S11305606983F8942090D5113090D6114090D7111A
S11305705090D811662477248824EEE4AE2E73E8D4
S1130580B72ECC24DD24EE24FF2400E010E0222D3D
S1130590332D442D552D662D772D882D90E00E9406
S11305A074202A833B834C835D836E837F83888797
S11305B09987822E932EA42EB52E2401350100E2B4
S11305C00E947221A22EB32EC42ED52EA301920115
S11305D056954795379527952A0D3B1D4C1D5D1D56
S11305E057FF05C05F772F5F3F4F4F4F5F4F2093FB
S11305F0D5113093D6114093D7115093D811E98176
S11306008E2F99278FBFCA01B90129960FB6F89486
S1130610DEBF0FBECDBFDF91CF911F910F91FF9031
S1130620EF90DF90CF90BF90AF909F908F907F908E
S11306306F905F904F903F902F9008952F923F922C
S11306405F926F927F928F929F92AF92BF92CF925E
S1130650DF92EF92FF920F931F93CF93DF93CDB767
S1130660DEB7CB57D0400FB6F894DEBF0FBECDBF78
S113067044E956E1ABE6B6E185E190E011969C933E
S11306808E93FD011282FA01168295838483189653
S1130690485F5F4FF6E1A339BF0781F7A0900001DF
S11306A0B09001012A2D2150E22FFF279C9793E05F
S11306B0EE0FFF1F9A95E1F7EA0FFB1F878381E096
S11306C08683B182A082B382A282158214828501BC
S11306D075018824992483E5682E712C6C0E7D1E87
S11306E0DE01AD5ABF4F85E0289FA001112443507D
S11306F05A4E90E09F5FFD01958BFA018191AF0105
S11307008D939530B9F72F5FF301248BDE01119699
S113071089E201900D928150E1F7DE019A96FE0183
S1130720319689E201900D928150E1F7E4E9F6E116
S11307301AE2C12ED12CCC0EDD1E61E070E0BDE6C4
S11307402B2EB6E13B2EA1E05A2ED6018C91853199
S113075058F59401280F311DEA14FB0411F0502FB1
S113076001C0562FD1018C91882369F48681882396
S113077051F487835682852F9927938382837183CB
S11307806083358324834681413071F4848195816B
S1130790281739074CF48783852F992793838283FD
S11307A071836083358324830894C11CD11C3896DB
S11307B06F5F7F4F88E090E0280E391E6630710528
S11307C021F690E0AAE9B6E18C9181119F5F189619
S11307D0E6E1A23CBE07C1F79923D9F165E17FEFB9
S11307E040E050E09A972D913C911197862F9927DC
S11307F02817390734F4FD018281882311F0622F10
S1130800742F4F5F5F4F18964530510561F7272FBE
S1130810872F9927F3E0880F991FFA95E1F7DC01F8
S1130820AC56B94EFD018480958002811381ED9010
S1130830FC901197FC01E959F94E878381E0868386
S1130840F182E0821383028395828482FD01168201
S113085047CFC558DF4F0FB6F894DEBF0FBECDBFEC
S1130860DF91CF911F910F91FF90EF90DF90CF9088
S1130870BF90AF909F908F907F906F905F903F90CC
S11308802F900895089508952F923F924F925F926A
S11308906F927F928F929F92AF92BF92CF92DF928C
S11308A0EF92FF920F931F93CF93DF936C017B0121
S11308B0FC01178A168A158A148A6624772460E54F
S11308C0262E312C2E0C3F1C2C015CE3A52EB12CC2
S11308D0AE0CBF1C48C0F5018081C82FDD27CE01B6
S11308E06DE070E00E9401229C01CE016BE070E09B
S11308F00E9401224C010894811C911C00E010E02C
S1130900C90164E170E00E940122FC01EE0FFF1FA7
S1130910E80FF91FEE0DFF1D808191818C179D0753
S113092089F00F5F1F4F280D391D0431110541F760
S1130930F70184AD9927FC01EE0FFF1FE80FF91FA3
S1130940EE0DFF1D82819927F20181932F01F6019B
S1130950848995890196958B848B0894611C711CFC
S11309600894A11CB11CF1018081992768167906AD
S113097008F4B1CFDF91CF911F910F91FF90EF90C9
S1130980DF90CF90BF90AF909F908F907F906F90AB
S11309905F904F903F902F90089580E88093950149
S11309A01092CF1110928F161092F9151092CB114C
S11309B008951F93CF93DF93182F8FB7F894C82F00
S11309C0DD2760E080E00E94F500882321F0CFBF9E
S11309D080E090E005C0CFBF812F0E946401992779
S11309E0DF91CF911F910895CF93DF93FC0115A65A
S11309F0DC019E96ED011B821A82198280E886A78B
S1130A00DF91CF9108958FB7F8946091F9117091A7
S1130A10FA112CB53DB506B602FE04C06F5F7F4FD8
S1130A202CB53DB599278FBF88279927CB01772708
S1130A30662744275527622B732B842B952B089507
S1130A40EF92FF920F931F930E9403057B018C0189
S1130A502091E4113091E5114091E6115091E71194
S1130A608091DA119091DB11A091DC11B091DD112C
S1130A70820F931FA41FB51FE216F3060407150780
S1130A8030F082179307A407B50758F005C0821702
S1130A909307A407B507E0F5E816F9060A071B074C
S1130AA0B8F59C01AD012E193F09400B510B2130C3
S1130AB060E8360760E0460760E0560768F180E0CA
S1130AC090E8A0E0B0E0E80EF91E0A1F1B1FE092B8
S1130AD0E411F092E5110093E6111093E71180E020
S1130AE090E8AFEFBFEFE80EF91E0A1F1B1F20505E
S1130AF03048404050402093DA113093DB1140934A
S1130B00DC115093DD1120E030E840E050E014C0E7
S1130B1020E030E040E050E08093E4119093E51150
S1130B20A093E611B093E7111092DA111092DB1141
S1130B301092DC111092DD11A901B7012CB53DB55D
S1130B40C9018E199F0903968417950720F0B901EE
S1130B506D5F7F4F02C0640F751F6115710511F43D
S1130B6061E070E0615070407BBD6ABD80E186BF8A
S1130B7087B7806187BF1F910F91FF90EF90089511
S1130B800F931F930FB7F89411276093E411709398
S1130B90E5118093E6119093E7112093DA113093D5
S1130BA0DB114093DC115093DD110E9420050FBF2F
S1130BB01F910F91089597B79F7D97BF90E296BFBD
S1130BC0882319F08EB5806402C08EB58F7B8EBDEC
S1130BD087B7806287BF80E090E00895DC01FC0164
S1130BE0CC96118210823396E817F907D1F7A05BEF
S1130BF0BF4F1C920895DF92EF92FF920F931F93C1
S1130C008FB7F894282F3327D22E91B782B746B7DF
S1130C10981711F041FF02C02FBF6AC08091F411F0
S1130C208823E1F10E946E02E0907A12F0907B1228
S1130C3000917C1210917D122091910130919201CA
S1130C4040919301509194016E197F09800B910B8F
S1130C50621773078407950720F01092F41171E06E
S1130C601EC02E0D3F1D401F511F80917E0190918B
S1130C707F01A0918001B0918101281B390B4A0B9F
S1130C805B0B273E31054105510540F4822F22308C
S1130C9010F070E005C070E082E002C070E086EE03
S1130CA0682F615000B601FCFDCF82B7681709F4C4
S1130CB06F5F20917E0130917F01409180015091BE
S1130CC08101DA01C9010196A11DB11D860F911D93
S1130CD0A11DB11D82179307A407B50710F4622F55
S1130CE0609561BFDFBE772319F081E00E94700038
S1130CF01F910F91FF90EF90DF900895AFB7F89494
S1130D00BB27E1E0E093F41160937A1270937B12B5
S1130D1080937C1290937D122093910130939201E1
S1130D204093930150939401AFBF0E94FB05089533
S1130D30AF92BF92CF92DF92EF92FF920F931F93E5
S1130D40CF93DF93CDB7DEB728970FB6F894DEBF05
S1130D500FBECDBF20E070E0E0910001F0910101F1
S1130D6032E14DE65CE46FE4809101019E2F289608
S1130D700FB6F894DEBF0FBECDBFDF91CF911F91A8
S1130D800F91FF90EF90DF90CF90BF90AF900895B8
S1130D901F920F920FB60F9211248F9383B783BFC4
S1130DA000B600FCFDCF8F910F900FBE0F901F90E7
S1130DB0189578941F920F920FB60F9211240F90EA
S1130DC00FBE0F901F90189578941F920F920FB634
S1130DD00F9211240F900FBE0F901F9018957894C6
S1130DE01F920F920FB60F9211242F933F938F935C
S1130DF09F932FB7F89433278091F9119091FA11AA
S1130E0001969093FA118093F9112FBF9F918F91BE
S1130E103F912F910F900FBE0F901F9018951F9226
S1130E200F920FB60F9211240F900FBE0F901F90C8
S1130E3018951F920F920FB60F9211240F900FBEA8
S1130E400F901F9018951F920F920FB60F921124B6
S1130E500F900FBE0F901F9018951F920F920FB610
S1130E600F9211240F900FBE0F901F9018951F9290
S1130E700F920FB60F9211240F900FBE0F901F9078
S1130E8018951F920F920FB60F9211240F900FBE58
S1130E900F901F9018951F920F920FB60F92112466
S1130EA00F900FBE0F901F901895AF92BF92CF92E4
S1130EB0DF92EF92FF920F931F93FC016383672FDE
S1130EC0772762834183452F552740832683E58214
S1130ED0EF2CFF24E4820783BB24A501B601089606
S1130EE00E948B221F910F91FF90EF90DF90CF9083
S1130EF0BF90AF9008951F920F920FB60F921124D6
S1130F002F933F934F935F936F937F938F939F930D
S1130F10AF93BF93EF93FF9383B783BF00B600FCF7
S1130F20FDCF81B799270196AA27BB2720917E017F
S1130F3030917F014091800150918101280F391F28
S1130F404A1F5B1F20937E0130937F0140938001F1
S1130F505093810178940E94FB05FF91EF91BF911A
S1130F60AF919F918F917F916F915F914F913F913D
S1130F702F910F900FBE0F901F901895EF920F9323
S1130F801F93AE2D99E0899FF0011124E85CFD4E7A
S1130F904083518362837383048315832683378359
S1130FA0A17080858E7F8A2B8260808782E00E9478
S1130FB070001F910F91EF900895AF92BF92CF925E
S1130FC0DF92EF92FF920F931F93F82E5A016B0159
S1130FD00E946E02AB01BC01EE24960185018F2DA7
S1130FE00E94BE071F910F91FF90EF90DF90CF906A
S1130FF0BF90AF9008950F931F93182F0FB7F894D5
S113100061E080E00E94DB00882371F510932B01DE
S113101080912E018823A9F580913E01823089F5C3
S113102089E00CC00E94120180913E01882349F49A
S113103081E080933E011092CC118BE00E947000FD
S11310402AC08091DE118F3F31F5E0912D01EE230E
S113105011F11CC010922C0104C0FF27E252FE4E75
S1131060108210922D0117C081E090E002C0880F19
S1131070991F1A95E2F720913D01282B20933D01F9
S11310800AC080913E018823E1F6CCCF80912C01E7
S11310908F3F19F7DFCF802F99278FBF80E090E033
S11310A01F910F9108951F9383E00E9427019927B0
S11310B0182F882319F083E00E94FB07812F9927BA
S11310C01F910895EF92FF920F931F93CF93DF9395
S11310D0182F7B01042F8FB7F894C82FDD2760E009
S11310E080E00E94F500882321F0CFBF80E090E0EB
S11310F014C0CFBF1064812F99279093ED11809372
S1131100EC110E946401182F402F5527B70180E08D
S113111090E00E94DE01812F9927DF91CF911F91EA
S11311200F91FF90EF900895C098609145017091E0
S1131130460141E08FE30E946208089582E090E056
S11311409093C6118093C51181E08093CF1120E064
S113115030E080912B01843011F421E030E0232B26
S113116029F484E00E942701882319F40E9494083A
S1131170089584E00E94FB0708951F920F920FB612
S11311800F9211242F933F934F935F936F937F9309
S11311908F939F93AF93BF93EF93FF938091C51168
S11311A09091C611019749F482E090E09093C611A2
S11311B08093C5110E949E0805C08091CB118F5F5A
S11311C08093CB11FF91EF91BF91AF919F918F913C
S11311D07F916F915F914F913F912F910F900FBE2F
S11311E00F901F9018951F9380913D01882309F05B
S11311F04BC010912B011F3F09F046C060E00E94D4
S1131200F500882309F440C081E080938D12809119
S1131210B4118823E1F110928D1285E090E045C06D
S1131220923069F5C09A80912C0120E030E08F3F24
S113123011F421E030E0232BE9F410932E018F3FC9
S113124019F42FEF30E00DC0282F3327F901E252B3
S1131250FE4E808180932C018F3F11F410932D0159
S113126010832093CC1181E080933E018BE00E9497
S1131270700005C010932E0110923E0111C08091A0
S11312803E01882369F00FC081E090E00EC0809198
S11312902E0190913E01882319F2923021F0EFCF74
S11312A080E00E94060180E090E01F9108951F9362
S11312B0CF93DF939FB7F894C92FDD271C2F90910C
S11312C02B01981721F0CFBF81E090E03AC08FEF57
S11312D080932B0130913D013323F1F48FB7F894BF
S11312E0992710927E128FBF0E94F308CFBF11C0BE
S11312F020932B0181E090E002C0880F991F4A954A
S1131300E2F78095382330933D0189E00E94700014
S11313101FBF80E090E015C080E065E0E32FFF2769
S11313200E94F521292F492F5527CF01042E02C0F1
S1131330959587950A94E2F780FDDACF822F8F5F27
S1131340EFCFDF91CF911F9108951F93CF93DF9338
S11313508FB7F894C82FDD271C2F8091C511909169
S1131360C611892B29F484E00E945709CFBF1EC0FF
S11313701092CF118091CB11882311F0B79904C03A
S11313800E9908C0882319F081508093CB110E94D4
S11313909E080BC081E090E09093C6118093C51124
S11313A01092CB1184E00E9457091FBFDF91CF91A7
S11313B01F9108950E94CD04C09AC09888E00E94AD
S11313C0D90488E00E94D904C09A84E00E94570995
S11313D00E94A5090895FF920F931F93CF93DF9363
S11313E0F82E8B018FB7F894C82FDD2760E080E0DA
S11313F00E94F500882321F0CFBF80E090E00CC06C
S1131400CFBF8F2D0E946401812F99270E94640110
S1131410802F0E9464019927DF91CF911F910F9132
S1131420FF9008951F931FB7F8948091CA118823E1
S113143019F460E070E009C060E08091BC16882374
S113144009F461E081E0682777278091D21188232D
S113145019F480E090E00AC090E080918312882320
S113146009F491E081E09827892F9927762F662740
S1131470770F770F770F24E0880F991F2A95E1F7EC
S1131480826E9262682B792B81E10E94EB09812F95
S113149099278FBF1F9108958FB7F894992760916A
S11314A08C128FBF85E0689FB0011124625D7E4F6E
S11314B0706488E10E94EB090895EF92FF921F93F4
S11314C0CF93DF93E090D311F090D411F70182A56C
S11314D09927182F882309F41FE1C0988091C91116
S11314E0811749F0612F77276F717070606E706893
S11314F085E10E94EB091093C911F70110818FB7A0
S1131500F894C82FDD2760E080E00E94F50088236E
S113151011F0CFBF12C0CFBF8EE390E09093ED11D6
S11315208093EC118EE30E9464011150412F5527E2
S113153060E070E0C7010E94DE01DF91CF911F914E
S1131540FF90EF9008950F931F93CF93DF93EC01D7
S11315500FB7F89411270E949700FC018FE3808352
S11315600FBF109292161092911661E082E00E94D1
S1131570DB00882319F085E090E072C080918E1220
S11315808F5F80938E1281508B838FB7F894082FCE
S1131590112762E081E00E94F500882329F40FBF3F
S11315A00E94FF0181E05BC08FB7F894992724E083
S11315B020937F128FBFD093F311C093F2110FBF0A
S11315C0FE013196818129819927982F8827332715
S11315D0822B932B80729C7C8983892F992781830A
S11315E02981982F882733272164822B932B898381
S11315F0892F992781831CA618A619A619AA18AAA7
S11316001FA680E88EA761E0609382124091F211D8
S11316105091F3118FB7F894282F332780913F010D
S1131620909140018830910511F0019711F02FBF7E
S113163015C082E090E09093400180933F01609355
S1131640C3165093D4114093D31110927D012FBF30
S11316500E945308882311F40E945D0A80E09927B0
S1131660DF91CF911F910F910895CF93DF93DA010A
S1131670422F2D3118F082E090E05EC0ED018B879F
S11316806E83872F99278F832FB7F8943327809100
S1131690D0119091D1112FBFFD018483892F9927F7
S11316A085832FB7F894332780912F0190913001CF
S11316B02FBF8887892F992789873196818129812E
S11316C09927982F8827332720643868822B932BF7
S11316D08983892F99278183435F4C934D5080914F
S11316E03201882359F010923201642FCD010E94F7
S11316F0A30A9927282F8823A9F417C0842F992790
S11317009093F1118093F011B0934401A09343019D
S11317108DE00E94700080913201882349F489E0B1
S113172090E00AC08FEF80933201822F992704C082
S11317301092D91180E090E0DF91CF910895CF937A
S1131740DF93FB01DB0116968683892F9927ED0130
S1131750898386E083878091F7119091F811892B12
S113176019F085E090E02BC07093F8116093F711A5
S1131770435F40834D5080913501882319F480E004
S113178090E01DC08385ED0169817727762F662758
S113179026813327622B732B10923501242FAF013E
S11317A00E94350B9927282F882339F081E08093F4
S11317B035011092F8111092F711822F9927DF91B9
S11317C0CF9108951F93CF93DF93182FEB01E82F48
S11317D0FF27EE0FFF1FE950FE4E11821082109278
S11317E03501E091F711F091F811309721F08091D3
S11317F0901680FF12C081E08093350103C08FE012
S11318000E9470001123D9F4C754D140C1F410923E
S1131810380180E00E94700012C020812D503327CF
S113182067817727762F662786819927682B792BFE
S1131830AF0183850E94350B882321F3E0CFDF912C
S1131840CF911F9108959B0180913501882349F41C
S11318506091F7117091F8116217730711F40E94E7
S1131860E20B0895CF93DF93C0914301D0914401DB
S11318706091F011CE010E94A30A482F55274423FA
S113188051F08FEF809332016091430170914401D4
S11318908B850E94230CDF91CF910895CF92DF9224
S11318A0EF92FF920F931F93CF93DF938C01F62E49
S11318B06A01E22E8FB7F894C82FDD2760E080E03C
S11318C00E94F500882321F0CFBF80E090E01EC085
S11318D0CFBF0F0D111D802F80680E946401F82E68
S11318E016950795802F807C0E9464010E2D0AC0F6
S11318F0EE2DFF27E01BF109EC0DFD1D80810E94F8
S1131900640101500023A1F78F2D9927DF91CF9116
S11319101F910F91FF90EF90DF90CF900895CF9398
S1131920DF93CDB7DEB72C970FB6F894DEBF0FBEAA
S1131930CDBF8FB7F894282FAE014F5F5F4FDA0108
S1131940E4E8F2E188E001900D928150E1F78091A2
S1131950D0119091D1118987892F99278A878091F5
S1131960E8119091E9118B87892F99278C872FBFD4
S11319702CE060E080E691E00E944E0C2C960FB6BD
S1131980F894DEBF0FBECDBFDF91CF9108951F93B2
S1131990182F81E090E09093400180933F011092D2
S11319A0B4110E94F3088FB7F89499271093390162
S11319B08FBF85E00E9470001F910895AF92BF927F
S11319C0CF92DF92EF92FF920F931F930E949502A2
S11319D07B018C010E946E025B016C01C70168EC03
S11319E070E00E940122AA27BB27E1E0EE2E8C01C1
S11319F09D01B601A50185E00E94BE071F910F91CC
S1131A00FF90EF90DF90CF90BF90AF9008957894BF
S1131A101F920F920FB60F9211242F923F924F9262
S1131A205F926F927F928F929F92AF92BF92CF926A
S1131A30DF92EF92FF920F931F932F933F934F9355
S1131A405F936F937F938F939F93AF93BF93CF9342
S1131A50DF93EF93FF93C6B5D7B58FB7F894282ECD
S1131A600E9403059B012C1B3D0B442755272B018A
S1131A703C01421A530A640A750A80913F0190910D
S1131A8040018530910521F0069709F0E0C0BFC000
S1131A9086E090E09093400180933F0131E0332E43
S1131AA03092CE111092410180E00E94DB05E0915A
S1131AB0D311F091D41141AABB27A72D962D852DC2
S1131AC080ABC301AA27BB2787A7872D9927AA27FD
S1131AD0BB2786A7E091D311F091D41185A5882363
S1131AE009F484C06081655077274F01860E971EE4
S1131AF0F4012081E1808281A3809927AA27BB2752
S1131B00BA2FA92F982F8827332744275527522FD8
S1131B10442733272227FF24002711278701FF2486
S1131B20EE242E293F29402B512BBB24CC24DD2429
S1131B302A293B294C295D29822B932BA42BB52BD5
S1131B4084199509A609B7098383292F3A2F4B2FA6
S1131B50552722839D014427552721838B2F9927BD
S1131B60AA27BB278083C09824E0A40180E090E0EA
S1131B700E944E0CC09AF4012081E1808281A380EE
S1131B809927AA27BB27BA2FA92F982F882733274D
S1131B9044275527522F442733272227FF24002781
S1131BA011278701FF24EE242E293F29402B512B96
S1131BB0BB24CC24DD242A293B294C295D29822BF2
S1131BC0932BA42BB52B840D951DA61DB71D8383C4
S1131BD0292F3A2F4B2F552722839D014427552720
S1131BE021838B2F9927AA27BB278083E091D311C8
S1131BF0F091D411818185FF02C03092B41183E049
S1131C000E94570987B78F7E87BF84997AC0109244
S1131C10CE1181E00E94DB05E091D311F091D41143
S1131C20818185FF0FC087E090E09093400180930D
S1131C303F010E94030520E031E040E050E00E94B3
S1131C40C00503C080E00E94C70C849B5AC08091E9
S1131C504101882391F58091CE11882371F511E01B
S1131C601093CE110E94DB0580B32091F915283022
S1131C7098F4E0918F16E20FFF27E770F070EE0FF3
S1131C80FF1FEE0FFF1FEB55FA4E40825182628216
S1131C9073822F5F2093F91510934101D093EF11B4
S1131CA0C093EE1184992DC09927F4E096958795F9
S1131CB0FA95E1F7182F117001C010E08091CE1150
S1131CC08130F9F41092CE110E94DB05109241018B
S1131CD01123B9F48091EE119091EF11C81BD90B27
S1131CE02A9778F48091F915882319F0815080930C
S1131CF0F9158091D3119091D411009711F00E949D
S1131D00F4042FBEFF91EF91DF91CF91BF91AF917A
S1131D109F918F917F916F915F914F913F912F91FF
S1131D201F910F91FF90EF90DF90CF90BF90AF90F5
S1131D309F908F907F906F905F904F903F902F90E7
S1131D400F900FBE0F901F90189561E081E00E94E4
S1131D50DB008823E9F48FB7F894282F3327809188
S1131D603A0190913B01892B11F02FBF20C081E0F3
S1131D7090E090933B0180933A012FBFDD9A0E943B
S1131D80030524E130E040E050E00E94C0050FC0AC
S1131D9062E081E00E94F500882319F089E090E078
S1131DA0089561E081E00E94F500882319F080E045
S1131DB090E0089585E090E00895CF92DF92EF924D
S1131DC0FF920F931F93CFB6F894DD240E949502DF
S1131DD0DC01CB0166E470E00E9401224BE0E42EBA
S1131DE0F12CE80EF91EF092C016E092BF160E9484
S1131DF0030500271127A80197010E94C005CFBE43
S1131E001F910F91FF90EF90DF90CF9008951F9353
S1131E10CF93DF938FB7F894C82FDD271C2F8091C1
S1131E203F01909140010897C9F489E00E94D904C8
S1131E3083E00E945709C09A81E090E090934001AA
S1131E4080933F018FB7F894992723E020933901B9
S1131E508FBF85E00E947000CFBF30C0C0988091D2
S1131E60C316882311F085E001C084E00E94D904E0
S1131E7083FD09C080E00E94D90483FF04C085E08B
S1131E8090E020E003C083E090E021E090934001E3
S1131E9080933F01C09A1FBF222341F010927D011D
S1131EA083E00E9457090E94DD0E08C00E940305CA
S1131EB020E431E040E050E00E94C005DF91CF9182
S1131EC01F910895EF92FF920F931F93CF93DF9387
S1131ED08B018091EC119091ED1186FF40C18F7BB5
S1131EE08F3309F08EC1C0914501D09146015881CC
S1131EF05093C7118091C5119091C61185309105F9
S1131F0009F443C08630910509F48AC0029709F0A8
S1131F101FC185E090E09093C6118093C511409154
S1131F209501852F99270196242F332728173907E0
S1131F304CF1B79906C00E9904C0451B415040931B
S1131F4095014091C7114A32E8F44423A1F0BE013F
S1131F506F5F7F4F483018F047E050E007C086E0DD
S1131F6090E09093C6118093C511552780E090E0CE
S1131F700E94DE0146C11092CF11C09A84E00E94F3
S1131F805709E3C00E94DA093CC186E090E09093CF
S1131F90C6118093C5118091D211882309F439C0E8
S1131FA0809183128823A9F5898185FF32C08F81AE
S1131FB04E812FB7F89433276091E8117091E9119D
S1131FC02FBF9927982F88275527842B952B861761
S1131FD0970759F08F812E819927982F88273327C7
S1131FE0822B932B8F5F9F4FA1F48981877081305F
S1131FF081F4C09AC0988AE00E94D904C09AC0981B
S11320004091C71147502896BE018FE30E94620891
S1132010F8C04091C711475055272896BE01A6CF56
S1132020C09A8091CB11882339F484E00E94570927
S11320308091CB11882311F0B7990AC00E9B08C078
S11320409091F915992321F08091C7118B3038F4C0
S113205080914501909146010E94F4043DC0913065
S113206001F5E0918F16FF27EE0FFF1FEE0FFF1F04
S1132070EB55FA4E2081318142815381E091450133
S1132080F091460121ABBB27A52F942F832F80AB62
S1132090CA01AA27BB2787A7252F332744275527FB
S11320A026A780918F169927019668E070E00E9418
S11320B0152280938F168091F91581508093F9151C
S11320C0882351F080914501909146010E94F404C7
S11320D010928F161092F9158091C711FE01E80F26
S11320E0F11D808187FF31C0012B79F1698167700F
S11320F0E0914501F0914601623019F5A091D311A8
S1132100B091D411109709F180913F019091400151
S11321100797D9F4ED019B8183819817B1F487B7B0
S11321208F7E87BF908181E08CA7E90FF11D82919A
S1132130319688A780818F7789A780E00E94C70C99
S113214004C0613011F48CE02AC00E94A50959C072
S11321501092CF11C09A84E00E94570952C08E3366
S113216009F04FC0C09A80913F01909140010897B7
S1132170C9F4C09889E00E94D904C09A83E00E94FF
S1132180570981E090E09093400180933F018FB71D
S1132190F894992723E0209339018FBF85E00E94AA
S11321A070002FC08091C316882349F484E090E026
S11321B09093400180933F010E94070F22C083E067
S11321C00E94570983E090E09093400180933F017F
S11321D00E949502DC01CB0166E371E00E940122BA
S11321E05BE0E52EF12CE80EF91EF0928F01E092EF
S11321F08E010E94030500271127A80197010E9460
S1132200C005DF91CF911F910F91FF90EF9008953A
S11322101F920F920FB60F9211242F933F934F9357
S11322205F936F937F938F939F93AF93BF93EF933A
S1132230FF932FB1E0917712F0917812309739F033
S11322408091F5119091F611E80FF91F2083809188
S1132250F5119091F61101969093F6118093F51172
S113226080E00E940C0140917B0150917C0180919F
S1132270F5119091F6118417950718F40E947001D6
S11322801CC060917712709178128091BD16909164
S1132290BE1610927812109277121092BE161092F7
S11322A0BD1610927C0110927B011092F6111092CF
S11322B0F5112FB120E00E94620FFF91EF91BF91C1
S11322C0AF919F918F917F916F915F914F913F91CA
S11322D02F910F900FBE0F901F90189578941F9216
S11322E00F920FB60F9211241F932F933F934F9386
S11322F05F936F937F938F939F93AF93BF93EF936A
S1132300FF9387B78F7E87BF78941FB7F894809127
S1132310DA119091DB11A091DC11B091DD110097DD
S1132320A105B10509F051C080913F019091400190
S11323308530910561F18630910530F48330910543
S113234049F0049781F51AC087309105F1F0089798
S113235051F514C0869B0FC084E090E09093400137
S113236080933F010E94030527E030E040E050E005
S11323700E94C00518C00E94DD0E15C00E945308BB
S1132380882389F40E94070F0EC080E00AC089E008
S11323900E94D90481E00E94DB0583E00E94570972
S11323A087E00E94C70C80913A0190913B0101970C
S11323B071F482E090E090933B0180933A01DE98BF
S11323C0DE9A80E00E94FB0702C00E942005812F54
S11323D099278FBFFF91EF91BF91AF919F918F91FB
S11323E07F916F915F914F913F912F911F910F902A
S11323F00FBE0F901F9018958F929F92AF92BF922D
S1132400CF92DF92EF92FF920F931F93CF93DF93BC
S1132410CDB7DEB7CE54D0400FB6F894DEBF0FBEB2
S1132420CDBF4B015C01CC24DD24E8E3F2E16085FF
S113243061FF95C12081318142815381E480F5801F
S113244006811781D501C401821B930BA40BB50B24
S11324508E159F05A007B10708F481C160FF03C072
S11324606D7F608708C02E0D3F1D401F511F2083C4
S113247031834283538382E0C81609F4CAC08C15A1
S113248038F0CC2071F091E0C91609F0EEC15BC0C0
S113249083E0C81609F4DCC095E0C91609F0E5C16B
S11324A05AC10E946E026B017C0100E010E06AE1F7
S11324B070E042C0832F9927869FF001879FF00D1B
S11324C0969FF00D1124DE015996EC56FD4E8AE1DB
S11324D001900D928150E1F78B8D9C8DAD8DBE8D59
S11324E088579C4EAF4FBF4F8C159D05AE05BF0559
S11324F0A0F020C0469FC001479F900D569F900DAD
S11325001124DC01AC56BD4EFC01E255FD4E8AE1BE
S113251001900D928150E1F73F5F432F55272091A1
S1132520A015822F99270197481759071CF32150AA
S11325302093A0150F5F1F4F302F8091A01508170F
S113254008F4B8CF92C10E949502DC01CB0168EC7B
S113255070E00E940122AA27BB278B589047AC4FFA
S1132560BF4FAC01BD0181E00E94DD0786E196E129
S11325700E94EE05E0903601F09037010894E11CCA
S1132580F11CF0923701E09236010894E108F10859
S1132590609100017091010133E3832E912C8C0E24
S11325A09D1EAA24CC24DD2400E010E021E030E0CC
S11325B04FEF5FEFC4010E9455078FEF9FEF9F938A
S11325C08F938DA99927982F88272EA93327822B9B
S11325D0932B9F938F938DB79EB74C970FB6F89418
S11325E09EBF0FBE8DBFEDB7FEB73196D4018CE10F
S11325F00D9001928150E1F783EB91E00E9420025B
S11326008DB79EB780960FB6F8949EBF0FBE8DBF50
S1132610A2C066E176E18E010F5F1F4FC8010E94E0
S113262044042D893E8941E08F89988D8217930750
S113263008F09FC0F801E80FF91FE0810196988F18
S11326408F8BFF27E7FDF095E252FE4E4083ECCFDF
S1132650109296018091491281FD13C00E94950247
S1132660DC01CB0168EC70E00E940122AA27BB27A1
S11326708057904AAE4FBF4FAC01BD0181E00E942C
S1132680DD07E0903601F09037010894E11CF11C5D
S1132690F0923701E09236010894E108F108609164
S11326A000017091010103E3802E912C8C0E9D1E7C
S11326B014E1A12EB7E1CB2EB1E0DB2E00E010E057
S11326C021E030E04FEF5FEFC4010E9455078FEF28
S11326D09FEF9F938F938DA99927982F88272EA9D1
S11326E03327822B932B9F938F938DB79EB74C9751
S11326F00FB6F8949EBF0FBE8DBFEDB7FEB73196EF
S1132700D4018CE10D9001928150E1F783EB91E0CB
S11327100E9420028DB79EB780960FB6F8949EBF94
S11327200FBE8DBF0E9495027B018C010E946E0238
S11327305B016C01C70168EC70E00E940122AA27CA
S1132740BB27F1E0EF2E8C019D01B601A50185E0C8
S11327500E94BE078AC080E00E94700086C0089470
S1132760C11CD11C399697E0C916D10409F05FCE7B
S11327707CC0E0903601F09037010894E11CF11C14
S1132780F0923701E09236010894E108F108609173
S1132790000170910101E3E38E2E912C8C0E9D1E9D
S11327A055E0A52E4FEDC42E41E1D42E02E010E0F9
S11327B028E730E04FEF5FEFC4010E9455078FEF29
S11327C09FEF9F938F938DA99927982F88272EA9E0
S11327D03327822B932B9F938F938DB79EB74C9760
S11327E00FB6F8949EBF0FBE8DBFEDB7FEB73196FE
S11327F0D4018CE10D9001928150E1F783EB91E0DB
S11328000E9420028DB79EB780960FB6F8949EBFA3
S11328100FBE8DBF0E9495027B018C010E946E0247
S11328205B016C01C70168EC70E00E940122AA27D9
S1132830BB2721E0E22E8C019D01B601A50185E0B4
S11328400E94BE070E949502DC01CB0168EC70E097
S11328500E940122AA27BB278A579D4EAA4FBF4F29
S1132860AC01BD0182E00E94DD0782E00E9470009D
S1132870C25BDF4F0FB6F894DEBF0FBECDBFDF9152
S1132880CF911F910F91FF90EF90DF90CF90BF9069
S1132890AF909F908F9008952F923F924F925F92A6
S11328A06F927F928F929F92AF92BF92CF92DF925C
S11328B0EF92FF920F931F93CF93DF93CDB7DEB7C1
S11328C0CA5BD0400FB6F894DEBF0FBECDBF8730D1
S11328D009F471C2883098F4833009F447C1843014
S11328E038F4813009F4BAC0823008F0EAC02CC050
S11328F0853009F4EDC1863008F041C2E3C18B3064
S113290009F479C38C3038F4893009F494C28A30DC
S113291008F04EC357C28D3011F40C940F1E8D3045
S113292008F47DC38E3031F08F3011F00C94681EA2
S11329300C94451E80919016882311F40C94681E03
S113294040E011E00C94211E8091B311882311F40E
S11329500C94681E80913801882311F00C94681E31
S1132960DE01A956BF4FE3EBF1E080E201900D9246
S11329708150E1F743EB51E060E070E00CC06F5F21
S11329807F4FDA01FA01B09680E201900D928150F6
S1132990E1F7405E5F4F2091B311822F9927019791
S11329A06817790764F321502093B311DE01A95A03
S11329B0BF4FFE01E956FF4F80E201900D92815016
S11329C0E1F7DE01A958BF4FFE01E95AFF4F80E24B
S11329D001900D928150E1F7FE01E958FF4F068DF9
S11329E0178D80913801882349F58091020188234D
S11329F029F143E551E0DA018CE101900D92815017
S1132A00E1F7809159019927282F8823B9F02150A3
S1132A10FA0126834CE167E471E0C8010E949F0B30
S1132A20882349F04CE167E471E08FEF9FEF0E9447
S1132A309F0B882319F481E0809338018091B311AE
S1132A40882311F40C94681E80913801882311F0B6
S1132A500C94681E0E94DE0C0C94681E8091C811B0
S1132A60882361F52091A1153091A2154091A315F9
S1132A705091A415EFB7F894FF2760917A127091E2
S1132A807B1280917C1290917D12E0909101F090E4
S1132A90920100919301109194016E0D7F1D801F8E
S1132AA0911FEFBF2093A1153093A2154093A31556
S1132AB05093A4151092C8110E947E060E946E02C3
S1132AC040C00E946E025B016C018FB7F894992795
S1132AD01092F4118FBF2FEF3FEF4FEF5FE760E0ED
S1132AE0E8E3F2E1808581FF1CC080819181A281AD
S1132AF0B38186017501E81AF90A0A0B1B0BD80188
S1132B00C701E480F58006811781E81AF90A0A0BE7
S1132B101B0BE216F306040715071CF4A801970122
S1132B2061E0399602E1E737F007E1F6662311F434
S1132B300C94681E121613061406150634F0C6010A
S1132B40B5010E94FC110C94681E2093A1153093CA
S1132B50A2154093A3155093A41581E08093C81146
S1132B60C601B5010E947E060C94681E0FB7F89446
S1132B70112781E00E94DB05F1E0EF2EF12CF092A9
S1132B804001E0923F01109241011092B411109261
S1132B90C9110FBF0FB7F89411270E94CD04F0920A
S1132BA0C611E092C5111092CF1189B78F7B89BFEE
S1132BB080E488BF8AB780628ABF8AB78F7E8ABF63
S1132BC089B7806489BF0FBF8FB7F894082F112786
S1132BD080913A0190913B01049719F483E00E949B
S1132BE0D9040FBF0FB7F8941127C09A80E00E9450
S1132BF057090FBF8FB7F894992722E020937F12CB
S1132C008FBF0E949502DC01CB0168EC70E00E944A
S1132C1001228B529B4EAA27BB27AC01BD0180E049
S1132C200E94DD070E9495027B018C010E946E02C6
S1132C305B016C01C70168EC70E00E940122805DB9
S1132C409A48AA27BB27E1E0EE2E8C019D01B6012C
S1132C50A50181E00E94BE070E9495027B018C01C0
S1132C600E946E025B016C01C70168EC70E00E9477
S1132C700122AA27BB27805A9541AF4FBF4F71E06D
S1132C80E72E8C019D01B601A50182E00E94BE07DA
S1132C900E9495027B018C010E946E025B016C0113
S1132CA0C70168EC70E00E940122AA27BB2761E0FB
S1132CB0E62E8C019D01B601A50185E00E94BE07A8
S1132CC00C94681E8FB7F894992710927F1278C0DD
S1132CD08FB7F8949927F09039018FBF63E081E0B2
S1132CE00E94F500882359F10FB7F8941127109228
S1132CF0400110923F0187B78F7E87BF87B78F7DD2
S1132D0087BF83E00E945709C09A0FBF0FB7F8949A
S1132D1011271092C6111092C5110E94CD04C09AB9
S1132D2089B78F7B89BF0FBF10923B0110923A0184
S1132D30DE98DD98DE9A84E00E94700007C08FB7A9
S1132D40F894992722E020937F128FBF0091F2110B
S1132D501091F3110E94FF018091911690919216A7
S1132D60892B11F00C94681E8FEF809332014F2D44
S1132D70B801F80183850E94230C0C94681E8FB758
S1132D80F894282F3327122F8091C116882311F528
S1132D9081E08093C11680913A0190913B010497A0
S1132DA021F481E00E94FB0703C087E00E947000C9
S1132DB01FBF0C94681E8FB7F89499271092C11600
S1132DC08FBF86C78FB7F894282F332780913C0193
S1132DD0882311F02FBF7CC72FBF80B3992756E0FB
S1132DE0969587955A95E1F7182F11709091EA11ED
S1132DF08091EB118917D9F01917C9F484E090E098
S1132E0090933B0180933A018FB7F894992721E07E
S1132E1020933C018FBF60E070E08DE10E94EB09DC
S1132E200E948F0CC09AC09883E00E947000109397
S1132E30EB1188E06DC08FB7F894992710912B019E
S1132E408FBF123009F467C0133030F4112359F0E6
S1132E50113009F03DC748C0133009F476C014306E
S1132E6009F036C7A2C0C0988FB7F894082F11276D
S1132E7080913A0190913B010297A1F583E090E0A3
S1132E8090933B0180933A0168E170E08DE10E94E8
S1132E90EB0981E08093EA1110923C0180B39927F9
S1132EA046E0969587954A95E1F7817090708093F6
S1132EB0EB1188E00E94700081E00E94D9046FE762
S1132EC072E08CE10E94EB090E944C0A0E94120AF3
S1132ED066E57AE287E10E94EB096FEF70E885E12D
S1132EE00E94EB090FBFF4C6C09886E00E94D90483
S1132EF00E944C0A0E94120A0E948F0CC09AC09829
S1132F0083E00E94D904C09A81E00E94570987E0B7
S1132F100E947000DDC6C0988FB7F894082F11275F
S1132F2060E080E00E94F500882311F00FBF0AC022
S1132F300FBF83E50E94640180E00E94640180E089
S1132F400E946401C09A82E02DC08FB7F89499273B
S1132F5020913F018FBF243039F0283041F02230D6
S1132F6001F50E945D0AB4C60E94070FB1C6C0985D
S1132F7089E00E94D904C09A83E00E9457098FB760
S1132F80F894992721E030E03093400120933F01E9
S1132F908FBF8FB7F8949927109339018FBF85E0BD
S1132FA0B7CF83E00E94570993C60E94940890C645
S1132FB00FB7F894112740917B0150917C016091E7
S1132FC07712709178128091BD169091BE1610926E
S1132FD07812109277121092BE161092BD161092AB
S1132FE07C0110927B011092F6111092F51120E0F1
S1132FF00E94620F77CF2FB7F89433278091CC11BA
S113300080932E0182E080933E012FBF80912E0198
S1133010882309F05DC6B89AC09889E079CFA09159
S11330204501B0914601FC909D012F0D311DF90120
S11330308081881F8827881FFD0183A7F90180816B
S11330408F77FD0181A721503040F9018081FD0176
S113305080A7A0914501B0914601FD0132818FB74F
S1133060F89499272091CA118FBF222309F490C0A4
S1133070832F992796958795969587958370907059
S11330808230910541F5878146812FB7F894332723
S11330906091E8117091E9112FBF9927982F882723
S11330A05527842B952B8617970719F481E090E018
S11330B06CC0FD018781268140E050E09927982F5C
S11330C088273327822B932B8F5F9F4F11F441E086
S11330D050E0CA015AC0039709F098C59E012D5FBC
S11330E03F4F44E852E188E0FA010190AF01F90151
S11330F001929F018150C1F79E012D5D3F4FAE01AA
S11331004D5F5F4F88E0FA010190AF01F901019230
S11331109F018150C1F79E01255F3F4FAE014D5D78
S11331205F4F88E0FA010190AF01F90101929F011C
S11331308150C1F79E012D5E3F4FAE01455F5F4F49
S113314088E0FA010190AF01F90101929F018150D9
S1133150C1F79E01255E3F4FAE014D5E5F4F88E093
S1133160FA010190AF01F90101929F018150C1F769
S113317048E050E0BE01655E7F4FCD0106960E9497
S11331807E22892B09F042C503C0882309F43EC579
S1133190FCE0FF1508F03AC5409045015090460107
S11331A0F2012281822F992716E0969587951A9528
S11331B0E1F7039719F468E070E002C062E070E0A0
S11331C0822F992796958795969587958370907009
S11331D0039719F488E090E002C082E090E006E0F2
S11331E010E0400E511E40E050E020E030E0F201DB
S11331F0E80FF91F8AEF9FEF480E591E05C0819111
S1133200480F511D2F5F3F4F26173707C4F3F201B4
S113321063818FEF809393168FB7F894782F20E013
S113322030E0E2E8F1E0808191818417950731F480
S11332308281861709F4D8C4209393162F5F3F4FD9
S113324033962430310579F77FBF909193163FB7B9
S1133250F8949F3F21F080914201891799F42091BD
S11332604201822F9927FC01EE0FFF1FE80FF91F7F
S1133270EE57FE4F5183408362832F5F2370209368
S113328042010CC0892F9927FC01EE0FFF1FE80FA4
S1133290F91FEE57FE4F518340836283832F992792
S11332A08FBF0FB7F8941127C2010E949700FC0149
S11332B090810FBFF20183A5882309F4A3C49F332F
S11332C009F0A0C4878146812FB7F8943327609111
S11332D02F01709130012FBF9927982F88275527E8
S11332E0842B952B8617970761F087812681992770
S11332F0982F88273327822B932B8F5F9F4F09F0BA
S113330081C4F2018385863009F07CC48091020176
S1133310882309F477C4F9E2FF1609F073C40CE0BA
S1133320802E912C840C951C1EE0212E312C240C13
S1133330351CF2018201015F1F4FC954DF4F19830D
S11333400883C75BD0404785B0E1EB2EF12CE40C39
S1133350F51C82010F5E1F4F2189622F542F30917B
S1133360371290E00EC0E92FFF27EE0FFF1FE55044
S1133370FE4E8181681721F48081581709F442C4F4
S11333809F5F931781F78FC4EE0FFF1FDF01A550D6
S1133390BE4E9C91AF0147505E4EFD018181FA0102
S11333A081839083822FE82FFF2790913712282F53
S11333B02F5F891748F3915090933712B6018BEF22
S11333C091E10E940602C754DF4F99828882C95B4B
S11333D0D040D4018D91C754DF4FB983A883C95B12
S11333E0D040F40121819927982F88273327822BF5
S11333F0932B60900001709001016816790609F41E
S1133400F9C18F5F9F4F09F076C127E0A22EB12C3E
S1133410A80CB91CF40187819927882321F08230F4
S113342009F0E8C1BFC067E171E0C40108960E94D9
S11334309B22E0903601F0903701892B09F059C0A6
S11334400894E11CF11CF0923701E09236010894D3
S1133450E108F108D1014C91C954DF4FE881F981A9
S1133460C75BD04080815527542F44279927482B88
S1133470592B84E1A82E07E1C02E01E0D02E01E0F3
S113348010E021E030E0B30187E991E00E945507A4
S1133490D1018C91C954DF4FE881F981C75BD040D9
S11334A020819927982F88273327822B932B9F934A
S11334B08F93809199019927982F882720919A01B9
S11334C03327822B932B9F938F930DB71EB70C51E9
S11334D010400FB6F8941EBF0FBE0DBFEDB7FEB778
S11334E03196A7E9B1E08CE10D9001928150E1F7AA
S11334F072C10894E11CF11CF0923701E09236018C
S11335000894E108F108D1014C91C954DF4FE881D6
S1133510F981C75BD04080815527542F44279927D0
S1133520482B592BF4E1AF2EE3E0CE2EE1E0DE2E62
S113353001E010E021E030E0B30187E991E00E946E
S11335405507D1018C91C954DF4FE881F981C75BDC
S1133550D04020819927982F88273327822B932BBB
S11335609F938F93809199019927982F8827209171
S11335709A013327822B932B9F938F930DB71EB7FA
S11335800C5110400FB6F8941EBF0FBE0DBFEDB71F
S1133590FEB73196A7E9B1E08CE10D90019281501C
S11335A0E1F719C1D1012C91C954DF4FE881F981A8
S11335B0C75BD0404081D7018C91F80160813327EB
S11335C0B22FAA275527A42BB52BFD01E257FD4E98
S11335D02081332727FD30959927982F882777272F
S11335E0862B972B2817390708F00CC398E0C92EAF
S11335F0D12CC80CD91CFD01EE0FFF1FEE0FFF1FCD
S1133600EA0FFB1FE850FA4ED6019401235F3F4FA7
S11336108D918193A217B307D9F7D101EC91C954C5
S1133620DF4FA881B981C75BD0408C91D8012C9120
S1133630FF27FE2FEE279927E82BF92BE257FD4EA3
S11336402083F701E0809C91D5010C91F40126813F
S1133650215026832F5F4081C754DF4FA881B98151
S1133660C95BD0408C91F1016081C954DF4FE8817E
S1133670F981C75BD040A081FF24FE2CEE24E92F02
S1133680FF27EE2AFF2A112733275527542F4427D3
S11336909927482B592B7727762F6627BB276A2B28
S11336A07B2B84E1A82E87E991E00E9455078FEFD8
S11336B09FEF9F938F93809199019927982F882743
S11336C020919A013327822B932B9F938F930DB7CD
S11336D01EB70C5110400FB6F8941EBF0FBE0DBF9D
S11336E0EDB7FEB73196A7E9B1E08CE10D900192F8
S11336F08150E1F770C00E941E030E94420480E0E2
S11337000E944304D701EC90F8018081D4014C91CC
S1133710F4017181D1016C91C954DF4FE881F981C1
S1133720C75BD040A081B8E0CB2ED12CC80CD91CEB
S1133730FF24FE2CEE249927E82AF92AF4010781B4
S11337401127268133275527542F4427E72FFF2796
S11337504E2B5F2B7727762F6627BB276A2B7B2B75
S113376084E1A82E87E991E00E945507D4019C9139
S1133770F4018181E92FFF27FE2FEE279927E82BFB
S1133780F92BA3E0EE0FFF1FAA95E1F7EF59F94ECD
S1133790808191819F938F93809199019927982F8C
S11337A0882720919A013327822B932B9F938F9301
S11337B00DB71EB70C5110400FB6F8941EBF0FBEC4
S11337C00DBFEDB7FEB73196A7E9B1E08CE10D90DE
S11337D001928150E1F783EB91E00E9420022DB722
S11337E03EB7205E3F4F0FB6F8943EBF0FBE2DBFCD
S11337F00E94DE0C4091000150910101D1018C9195
S1133800C954DF4FE881F981C75BD04020819927F3
S1133810982F88273327822B932B4817590709F4AD
S1133820F1C1D4018C91C754DF4FE881F981C95BA0
S1133830D04020819927982F88273327822B932BD8
S11338404817590709F0DEC1F401878199278130AF
S113385009F485C0813020F0833609F0D3C11AC140
S11338600E941E030E94420480E00E9443048FEFE2
S11338709FEF9A838983E0903601F0903701089492
S1133880E11CF11CF0923701E09236010894E10842
S1133890F108D1014C91C954DF4FE881F981C75B2C
S11338A0D040808108E010E0800E911E5527542FEF
S11338B044279927482B592B6091000170910101ED
S11338C024E1A22E640101E010E028E730E087E95A
S11338D091E00E945507D101EC91C954DF4FA881B2
S11338E0B981C75BD0408C91FF27FE2FEE27992723
S11338F0E82BF92B83E0EE0FFF1F8A95E1F7EF59D0
S1133900F94E808191819F938F938091990199279A
S1133910982F882720919A013327822B932B9F93EA
S11339208F93EDB7FEB77C970FB6F894FEBF0FBE2A
S1133930EDBF3196A7E9B1E08CE10D900192815081
S1133940E1F783EB91E00E9420020DB71EB7005E01
S11339501F4F0FB6F8941EBF0FBE0DBF42C18401A6
S1133960085F1F4F67E171E0C8010E949B22892B09
S113397029F4809196018F5F8093960163E071E052
S1133980C8010E949B22892B09F03CC180919001BF
S11339908F5F80939001D1012C91C954DF4FE8814E
S11339A0F981C75BD04080813327322F22279927A2
S11339B0282B392BC9016DE070E00E940122FC0123
S11339C0C9016BE070E00E94012201968E0F9F1FD7
S11339D064E170E00E940122482FE82EFF24C70111
S11339E06DE070E00E9401228C01C7016BE070E081
S11339F00E9401225C010894A11CB11CCC24DD248A
S1133A00C80164E170E00E940122BC01FC01EE0FD8
S1133A10FF1FE80FF91FEA5EF94E0190F081E02DD7
S1133A20309721F0EE15FF05B1F40AC080916616B7
S1133A30E82FFF27EA5EF94E44AF8F5F8093661646
S1133A40FB01EE0FFF1FE60FF71FEA5EF94E22831C
S1133A50F182E08209C00894C11CD11C0A0D1B1D0F
S1133A60F4E1CF16D10461F666E176E1CE01CF969A
S1133A700E944404FE01EB5AFF4F80819181FE01B4
S1133A80ED5AFF4F0190F081E02D8E179F0708F04B
S1133A90B9C0FBCFD4011896F4018085833609F0B0
S1133AA0B1C081858D3609F0ADC08285843609F0B8
S1133AB0A9C08385803209F0A5C09401245F3F4FDB
S1133AC08485803709F0FBC08585893609F0F7C005
S1133AD086858E3609F0F3C08785873609F0EFC0F6
S1133AE0FD018085803209F0EAC0F40181898033C8
S1133AF008F4E5C08A3308F0E2C08289803209F014
S1133B00DEC09E01255D3F4FA4014D5E5F4F89E0FD
S1133B10FA010190AF01F90101929F018150C1F7AF
S1133B20FD0181858983E0903601F0903701089486
S1133B30E11CF11CF0923701E09236010894E1088F
S1133B40F10849815A8140535040507060910001FE
S1133B5070910101F4E1AF2EEBE2CE2ED12CCC0E0C
S1133B60DD1E00E010E028E730E087E991E00E94E4
S1133B705507809197019927982F882720919801BC
S1133B803327822B932B9F938F93809199019927AD
S1133B90982F882720919A013327822B932B9F9368
S1133BA08F930DB71EB70C5110400FB6F8941EBF7B
S1133BB00FBE0DBFEDB7FEB73196A7E9B1E08CE1BA
S1133BC00D9001928150E1F783EB91E00E94200275
S1133BD02DB73EB7205E3F4F0FB6F8943EBF0FBEE1
S1133BE02DBF0E94DE0C0EC07FBF0CC0FD0185817D
S1133BF0893641F486818C3629F487818C3611F418
S1133C001092020150924601409245018FB7F894F8
S1133C1099271092CF118FBF0E94A50959C0909186
S1133C20D91180913201981709F452C0909332014E
S1133C30992319F40E94320C4BC08FEF8093320108
S1133C4047C090919016812F8923D1F0E42FFF274C
S1133C50EE0FFF1FE950FE4E208131811182108248
S1133C60812F8095982390939016442349F42754E8
S1133C70314059F51092380180E00E94700025C04F
S1133C804F5F483028F5110FDCCF80913501E82FC4
S1133C90FF27EE0FFF1FE950FE4E6081718141E066
S1133CA00E94E20B15C0C42ED22EB6018BEF91E117
S1133CB00E940602882309F086CB81E074CBF901C7
S1133CC080818B3609F09ECF91CF110F41E0B9CF9F
S1133CD0C654DF4F0FB6F894DEBF0FBECDBFDF91E1
S1133CE0CF911F910F91FF90EF90DF90CF90BF90F5
S1133CF0AF909F908F907F906F905F904F903F9088
S1133D002F9008958091FA158F3FB1F0282F332713
S1133D10F901EB54FE4E80818093FA158F3F11F424
S1133D208093C2168FEF80832F3F31F0822F0E9441
S1133D304C1481E090E0089580E090E008951F9392
S1133D40CF93DF93CDB7DEB7E0970FB6F894DEBF1D
S1133D500FBECDBF1FB7F89440E150E06FEF70E0A5
S1133D6085EB91E10E9494228FEF8093FA15809362
S1133D70C21681E08EBD88E080BF83E083BF8CB52E
S1133D809DB54AE72CB53DB52817390708F44150CD
S1133D90442311F0C901F6CF92B782B78917E9F32A
S1133DA02CB53DB592B782B78917E9F38CB59DB5AB
S1133DB0821B930B4096A5E096958795AA95E1F70B
S1133DC09093FC158093FB1513BE83B78EBD8EB5FF
S1133DD080BF12BE1DBC1CBC8FEF86BF86B780930C
S1133DE07C0080B7992787709070892BD1F7D29A7D
S1133DF0D19AD09ADA9AD99AD89A15BA8FEF84BB05
S1133E00D498DC981DBC1CBC87B7846087BF8EB572
S1133E10887F84608EBD0E94821E8823E1F78FEF25
S1133E208093CD11E2E8F1E08FEF9FEF91838083DF
S1133E301282339621E0EE38F207C1F70E94950210
S1133E4060938E1285EC95E1909346018093450131
S1133E508E98B89A8C988FEF8093DE1110927E1210
S1133E6010927F121092801210928112B89AD69AF0
S1133E70D59A8FB7F894992720912F01309130016A
S1133E808FBF3093E9112093E8110E94980629A767
S1133E903AA74BA75CA76DA77EA78FA798ABDE01B7
S1133EA09196FE01B99688E001900D928150E1F758
S1133EB0DE015196FE01B19688E001900D92815089
S1133EC0E1F7DE015996FE01719688E001900D92AA
S1133ED08150E1F7A4E8B2E1FE01799688E001900F
S1133EE00D928150E1F78091310199279093D1117E
S1133EF08093D0118FE1809379128AE180938C12A0
S1133F000E94980629A73AA74BA75CA76DA77EA78E
S1133F108FA798ABDE019196FE01B99688E00190D7
S1133F200D928150E1F7DE011196FE01B19688E011
S1133F3001900D928150E1F7DE011996FE01319650
S1133F4088E001900D928150E1F7A4E8B2E1FE010E
S1133F50399688E001900D928150E1F7A4E8B2E12E
S1133F60FD0137969C9180818D939083319742E136
S1133F70E738F407B9F781E08093CA111092BC16B0
S1133F808093D2111092831280B7886080BF8BE037
S1133F9083BF86EE81BF87B7826087BF0E94FB051F
S1133FA080910001909101010196AA27BB2780937B
S1133FB0D5119093D611A093D711B093D8110E9424
S1133FC0821E8823E1F7812F99278FBF78940E945E
S1133FD0A50E109237121092900186E196E10E948C
S1133FE0EE056FED71E12FE832E1EDEFF5E185E1EA
S1133FF09FEFDB018D93BD01D9019D939D018083CA
S113400081838283838384833596B1E1643E7B0715
S113401081F78FB7F894482F55274BC087B7992756
S113402083709070892B19F4E5E0F0E013C080B739
S1134030992787709070892BD1F781B792B7891B24
S11340408C3030F082B7853F18F4E3E0F0E002C032
S1134050E2E0F0E087B7887BC1F480917D008B7F3C
S1134060A1F46E9912C08AB190919A00892B88713B
S113407061F48091740082FD08C0379B03C081E025
S113408090E005C085E090E002C080E090E025B7B4
S11340908E1708F4E82FFF27E457FF4FE491237E9F
S11340A02062E22BE5BF78948895F89485B78F7DDC
S11340B085BF8091FA158F3F09F4B0CF282F33279D
S11340C0F901EB54FE4E80818093FA158F3F11F471
S11340D08093C2168FEF80832F3F09F49FCF4FBF89
S11340E0822F0E944C1495CFACE2B0E0EAE7F0E2F4
S11340F00C944722222E332E442E552E662E772ED4
S1134100882E992EFE013196A8E01192AA95E9F71E
S113411029823A824B825C826D827E828F8298866B
S1134120FE013996B8E01192BA95E9F7A986BA86E4
S1134130CB86DC86ED86FE860F87188B89819A8173
S1134140AB81BC8189A79AA7ABA7BCA77C018D01D1
S11341508FEF9FEFA0E0B0E0E822F9220A231B23AF
S113416089A59AA5ABA5BCA51D0144245524898520
S11341709A85AB85BC858DA39EA3AFA3B8A75C012C
S11341806D018FEF9FEFA0E0B0E0A822B922CA2210
S1134190DB228DA19EA1AFA1B8A53D01882499245D
S11341A0C801B701A60195010E94282269A37AA338
S11341B08BA39CA3C801B701A40193010E942822E8
S11341C07B018C01C201B101A60195010E94282244
S11341D05B016C01C201B101A40193010E94282278
S11341E03B014C01EA0CFB1C0C1D1D1D89A19AA16D
S11341F0ABA1BCA19D01442755272E0D3F1D401F97
S1134200511F2A153B054C055D0540F480E090E004
S1134210A1E0B0E0680E791E8A1E9B1ECA01AA277F
S1134220BB27860D971DA81DB91D8D8F9E8FAF8F3F
S1134230B8A3A9013327222789A19AA1ABA1BCA1C4
S1134240A070B070280F391F4A1F5B1F298F3A8F47
S11342504B8F5C8FA98CBA8CCB8CDC8CED8CFE8C58
S11342600F8D18A1FE01719698E011929A95E9F7C5
S1134270ED8AFE8A0F8B188F2D813E814F815885E0
S11342806DA17EA18FA198A50E9428223B014C011B
S11342902D853E854F85588969A57AA58BA59CA552
S11342A00E9428222D893E894F89588D260F371F59
S11342B0481F591F260D371D481D591D2D8B3E8B38
S11342C04F8B588F6D887E888F88988C2A2D3B2D34
S11342D04C2D5D2D662D772D882D992DE2E1AC9620
S11342E00C946322A0E1B0E0E8E7F1E20C944722E9
S11342F0222E332E442E552E662E772E882E992E5E
S1134300002309F466C088E0FE01319611928A9573
S1134310E9F729833A834B835C836D837E838F82A1
S11343209887E0E2E01B1E16CCF52D813E814F817B
S11343305885602F772767FD7095DA01C901062E2D
S113434004C0B695A795979587950A94D2F78D875B
S11343509E87AF87B88B04C0220F331F441F551F9D
S1134360EA95D2F789819A81AB81BC8104C0B69564
S1134370A795979587956A95D2F7282B392B4A2BC1
S11343805B2B29873A874B875C8729843A844B8443
S11343905C846D847E848F8498881BC01D861E86F1
S11343A01F86188A2E2F332727FD309530952195A7
S11343B03F4F8D819E81AF81B88504C0B695A79586
S11343C0979587952A95D2F789879A87AB87BC8773
S11343D0DCCF222D332D442D552D662D772D882DA0
S11343E0992DE2E160960C946322991B79E004C054
S11343F0991F961708F0961B881F7A95C9F7809520
S11344000895AA1BBB1B51E107C0AA1FBB1FA61717
S1134410B70710F0A61BB70B881F991F5A95A9F769
S113442080959095BC01CD01089597FB092E072630
S11344300AD077FD04D0E5DF06D000201AF4709589
S113444061957F4F0895F6F7909581959F4F089554
S1134450629FD001739FF001829FE00DF11D649F64
S1134460E00DF11D929FF00D839FF00D749FF00DF0
S1134470659FF00D9927729FB00DE11DF91F639F91
S1134480B00DE11DF91FBD01CF01112408952F9234
S11344903F924F925F926F927F928F929F92AF92D0
S11344A0BF92CF92DF92EF92FF920F931F93CF931D
S11344B0DF93CDB7DEB7CA1BDB0B0FB6F894DEBFB4
S11344C00FBECDBF09942A88398848885F846E84DA
S11344D07D848C849B84AA84B984C884DF80EE8024
S11344E0FD800C811B81AA81B981CE0FD11D0FB62D
S11344F0F894DEBF0FBECDBFED010895FB01DC01D2
S113450004C08D910190801921F441505040C8F7A6
S1134510881B990B0895FB01DC0102C001900D92E8
S113452041505040D8F70895DC0101C06D934150CB
S11345305040E0F70895FB01DC018D910190801952
S10D45400110D9F3990B0895FFCF81
S113454A01000162726F61646340737400000000C9
S113455A00000000000000686521216F00000000CF
S113456A0000000000000000000000FFFFFFFF0140
S109457A0022FFFFFF0117
S9030000FC
